{
  "contractName": "HasOwner",
  "abi": [
    {
      "inputs": [],
      "payable": false,
      "stateMutability": "nonpayable",
      "type": "constructor"
    },
    {
      "constant": true,
      "inputs": [],
      "name": "useRequire",
      "outputs": [],
      "payable": false,
      "stateMutability": "view",
      "type": "function"
    },
    {
      "constant": true,
      "inputs": [],
      "name": "useRevert",
      "outputs": [],
      "payable": false,
      "stateMutability": "pure",
      "type": "function"
    },
    {
      "constant": true,
      "inputs": [],
      "name": "useAssert",
      "outputs": [],
      "payable": false,
      "stateMutability": "view",
      "type": "function"
    }
  ],
  "bytecode": "0x608060405234801561001057600080fd5b50336000806101000a81548173ffffffffffffffffffffffffffffffffffffffff021916908373ffffffffffffffffffffffffffffffffffffffff160217905550610223806100606000396000f3fe608060405234801561001057600080fd5b50600436106100415760003560e01c80633407643414610046578063955fb3dd14610050578063d0277d021461005a575b600080fd5b61004e610064565b005b6100586100bc565b005b610062610180565b005b6000809054906101000a900473ffffffffffffffffffffffffffffffffffffffff1673ffffffffffffffffffffffffffffffffffffffff163373ffffffffffffffffffffffffffffffffffffffff16146100ba57fe5b565b6000809054906101000a900473ffffffffffffffffffffffffffffffffffffffff1673ffffffffffffffffffffffffffffffffffffffff163373ffffffffffffffffffffffffffffffffffffffff161461017e576040517f08c379a00000000000000000000000000000000000000000000000000000000081526004018080602001828103825260208152602001807f6572726f7220697320636175736564206279207573696e67207265717569726581525060200191505060405180910390fd5b565b6040517f08c379a000000000000000000000000000000000000000000000000000000000815260040180806020018281038252601f8152602001807f6572726f7220697320636175736564206279207573696e67207265766572740081525060200191505060405180910390fdfea265627a7a72315820636d1bb5aa38632737798eb21227e786d562fe2d557f1c8dac3ef2ac0fe9b3c964736f6c634300050c0032",
  "source": "pragma solidity ^0.5.1;\r\n\r\ncontract HasOwner{\r\n    address internal owner;\r\n    constructor() public{\r\n        owner = msg.sender;\r\n    }\r\n\r\n    function useRequire() public view{\r\n        require(msg.sender == owner,\"error is caused by using require\");\r\n    }\r\n\r\n    function useRevert() public pure{\r\n        revert(\"error is caused by using revert\");\r\n    }\r\n\r\n    function useAssert() public view{\r\n        assert(msg.sender == owner);\r\n    }\r\n}\r\n\r\n/*ERROR BY require()-\r\ncall to HasOwner.useRequire errored: VM error: revert.\r\nrevert\tThe transaction has been reverted to the initial state.\r\nReason provided by the contract: \"error is caused by using require\".\r\n*/",
  "sourcePath": "E:/BLOCKCHAIN_STUFF/SMART_CONTRACTS_CODE/error_handling/contracts/Error_hndle.sol",
  "compiler": {
    "name": "solc",
    "version": "0.5.12+commit.7709ece9.Emscripten.clang"
  },
  "schemaVersion": "3.0.20",
  "updatedAt": "2020-01-07T07:15:54.213Z",
  "networkType": "ethereum",
  "devdoc": {
    "methods": {}
  },
  "userdoc": {
    "methods": {}
  }
}